:1000000071C000008EC000008CC000008AC00000DB
:1000100088C0000086C0000084C0000082C00000CC
:1000200080C000007EC000007CC000007AC00000DC
:1000300078C0000076C0000074C0000072C00000EC
:1000400070C000006EC000006CC000006AC00000FC
:1000500068C0000000C1000064C0000062C0000071
:1000600060C000005EC000005CC000005AC000001C
:1000700058C0000056C0000054C0000052C000002C
:1000800050C000004EC000004CC000004AC000003C
:1000900048C0000046C0000044C0000042C000004C
:1000A00040C000003EC000003CC000003AC000005C
:1000B00038C0000036C0000034C0000032C000006C
:1000C00030C000002EC000002CC000002AC000007C
:1000D00028C0000026C0000024C0000022C000008C
:1000E00020C0000011241FBECFEFD1E2DEBFCDBF84
:1000F00000E00CBF12E0A0E0B2E0E4ECF4E000E0CD
:100100000BBF02C007900D92A432B107D9F721E2CC
:10011000A4E2B2E001C01D92A736B207E1F76CD0AD
:10012000CFC16ECF80EA80937C0087E880937A000D
:1001300010927B0010927E000895EAE7F0E0808143
:1001400080648083808186FDFDCF80917900089551
:10015000CF93682F70E080E090E09BD02DEC3CECDA
:100160004CE85FE3D5D020E030E040E85AE3D0D05F
:10017000C1E020E030E04AE754E4C6D018160CF0A5
:10018000C0E08C2FCF91089582E084BD16BC99EF1A
:1001900097BD85BD80936E007894089587E690E0C2
:1001A0009093C5008093C40082E08093C00088E1F2
:1001B0008093C10086E08093C2000895E0ECF0E0F7
:1001C000908195FFFDCF8093C6000895CF93DF9374
:1001D000EC018881882329F02196F0DF8991811133
:1001E000FCCFDF91CF910895E0ECF0E0808188238F
:1001F000ECF78091C600089595DFC6DFCFDF80E081
:1002000092E0E4DFF1DF1BC098DFD82FC091240219
:10021000CC23A9F09DDF882391F080912502909155
:1002200026029C0121503109309326022093250299
:10023000FC01E95DFD4FD083C150C0932402809141
:1002400025029091260281349F41F0F210922602FD
:1002500010922502D4CF1F920F920FB60F92112445
:100260008F939F93809125029091260201969093FF
:10027000260280932502809124028F5F80932402BE
:100280009F918F910F900FBE0F901F901895E8943B
:1002900009C097FB3EF490958095709561957F4FCE
:1002A0008F4F9F4F9923A9F0F92F96E9BB2793957C
:1002B000F695879577956795B795F111F8CFFAF48C
:1002C000BB0F11F460FF1BC06F5F7F4F8F4F9F4FBD
:1002D00016C0882311F096E911C0772321F09EE81B
:1002E000872F762F05C0662371F096E8862F70E081
:1002F00060E02AF09A95660F771F881FDAF7880F5B
:100300009695879597F9089566D008F48FEF08952C
:100310000BD09CC08DD028F092D018F0952309F016
:100320007EC083C01124C6C0A2D0A0F3959FD1F394
:10033000950F50E0551F629FF001729FBB27F00D93
:10034000B11D639FAA27F00DB11DAA1F649F6627E8
:10035000B00DA11D661F829F2227B00DA11D621F37
:10036000739FB00DA11D621F839FA00D611D221FF1
:10037000749F3327A00D611D231F849F600D211DD5
:10038000822F762F6A2F11249F5750408AF0E1F078
:1003900088234AF0EE0FFF1FBB1F661F771F881FC1
:1003A00091505040A9F79E3F510570F038C082C06F
:1003B0005F3FECF3983EDCF3869577956795B795AC
:1003C000F795E7959F5FC1F7FE2B880F911D9695D6
:1003D000879597F90895990F0008550FAA0BE0E843
:1003E000FEEF16161706E807F907C0F012161306F7
:1003F000E407F50798F0621B730B840B950B39F437
:100400000A2661F0232B242B252B21F408950A269C
:1004100009F4A140A6958FEF811D811D089597F9DC
:100420009F6780E870E060E008959FEF80EC08959A
:1004300000240A94161617061806090608950024C3
:100440000A9412161306140605060895092E03943D
:10045000000C11F4882352F0BB0F40F4BF2B11F4B1
:1004600060FF04C06F5F7F4F8F4F9F4F089557FD10
:100470009058440F551F59F05F3F71F04795880F12
:1004800097FB991F61F09F3F79F0879508951216A9
:1004900013061406551FF2CF4695F1DF08C0161655
:1004A00017061806991FF1CF869571056105089406
:1004B0000895E894BB2766277727CB0197F908951D
:0404C000F894FFCFDE
:1004C4000A0D50726573696F6E6520756E612074D4
:1004D40065636C6120706172612063617074757210
:0404E40061722E0013
:00000001FF
